{
  "address": "0xa7b9C3a116b20bEDDdBE4d90ff97157f67F0bD97",
  "abi": [
    {
      "inputs": [
        {
          "internalType": "address",
          "name": "owner",
          "type": "address"
        },
        {
          "internalType": "address",
          "name": "insurance",
          "type": "address"
        },
        {
          "internalType": "address",
          "name": "dodoApprove",
          "type": "address"
        },
        {
          "internalType": "address",
          "name": "dodoApproveProxy",
          "type": "address"
        }
      ],
      "stateMutability": "nonpayable",
      "type": "constructor"
    },
    {
      "anonymous": false,
      "inputs": [
        {
          "indexed": false,
          "internalType": "address",
          "name": "admin",
          "type": "address"
        }
      ],
      "name": "AddAdmin",
      "type": "event"
    },
    {
      "anonymous": false,
      "inputs": [
        {
          "indexed": false,
          "internalType": "address",
          "name": "newInsurance",
          "type": "address"
        }
      ],
      "name": "ChangeInsurance",
      "type": "event"
    },
    {
      "anonymous": false,
      "inputs": [
        {
          "indexed": false,
          "internalType": "bytes32",
          "name": "orderHash",
          "type": "bytes32"
        }
      ],
      "name": "GaslessOrderFilled",
      "type": "event"
    },
    {
      "anonymous": false,
      "inputs": [
        {
          "indexed": true,
          "internalType": "address",
          "name": "previousOwner",
          "type": "address"
        },
        {
          "indexed": true,
          "internalType": "address",
          "name": "newOwner",
          "type": "address"
        }
      ],
      "name": "OwnershipTransferred",
      "type": "event"
    },
    {
      "anonymous": false,
      "inputs": [
        {
          "indexed": false,
          "internalType": "address",
          "name": "admin",
          "type": "address"
        }
      ],
      "name": "RemoveAdmin",
      "type": "event"
    },
    {
      "inputs": [],
      "name": "GASLESS_ORDER_TYPEHASH",
      "outputs": [
        {
          "internalType": "bytes32",
          "name": "",
          "type": "bytes32"
        }
      ],
      "stateMutability": "view",
      "type": "function"
    },
    {
      "inputs": [],
      "name": "_DODO_APPROVE_",
      "outputs": [
        {
          "internalType": "address",
          "name": "",
          "type": "address"
        }
      ],
      "stateMutability": "view",
      "type": "function"
    },
    {
      "inputs": [],
      "name": "_DODO_APPROVE_PROXY_",
      "outputs": [
        {
          "internalType": "address",
          "name": "",
          "type": "address"
        }
      ],
      "stateMutability": "view",
      "type": "function"
    },
    {
      "inputs": [],
      "name": "_INSURANCE_",
      "outputs": [
        {
          "internalType": "address",
          "name": "",
          "type": "address"
        }
      ],
      "stateMutability": "view",
      "type": "function"
    },
    {
      "inputs": [
        {
          "internalType": "address",
          "name": "",
          "type": "address"
        }
      ],
      "name": "_IS_ADMIN_",
      "outputs": [
        {
          "internalType": "bool",
          "name": "",
          "type": "bool"
        }
      ],
      "stateMutability": "view",
      "type": "function"
    },
    {
      "inputs": [
        {
          "internalType": "bytes32",
          "name": "",
          "type": "bytes32"
        }
      ],
      "name": "_IS_FILLED_",
      "outputs": [
        {
          "internalType": "bool",
          "name": "",
          "type": "bool"
        }
      ],
      "stateMutability": "view",
      "type": "function"
    },
    {
      "inputs": [
        {
          "internalType": "address",
          "name": "userAddr",
          "type": "address"
        }
      ],
      "name": "addAdmin",
      "outputs": [],
      "stateMutability": "nonpayable",
      "type": "function"
    },
    {
      "inputs": [
        {
          "internalType": "address",
          "name": "newInsurance",
          "type": "address"
        }
      ],
      "name": "changeInsurance",
      "outputs": [],
      "stateMutability": "nonpayable",
      "type": "function"
    },
    {
      "inputs": [
        {
          "components": [
            {
              "internalType": "address",
              "name": "signer",
              "type": "address"
            },
            {
              "internalType": "address",
              "name": "fromToken",
              "type": "address"
            },
            {
              "internalType": "address",
              "name": "toToken",
              "type": "address"
            },
            {
              "internalType": "uint256",
              "name": "fromAmount",
              "type": "uint256"
            },
            {
              "internalType": "uint256",
              "name": "toAmount",
              "type": "uint256"
            },
            {
              "internalType": "uint256",
              "name": "expiration",
              "type": "uint256"
            },
            {
              "internalType": "uint256",
              "name": "slot",
              "type": "uint256"
            }
          ],
          "internalType": "struct GaslessOrder",
          "name": "order",
          "type": "tuple"
        },
        {
          "internalType": "bytes",
          "name": "signature",
          "type": "bytes"
        },
        {
          "internalType": "bytes",
          "name": "routeData",
          "type": "bytes"
        },
        {
          "internalType": "address",
          "name": "route",
          "type": "address"
        },
        {
          "internalType": "uint256",
          "name": "maxCompensation",
          "type": "uint256"
        }
      ],
      "name": "matchingRFQByPlatform",
      "outputs": [],
      "stateMutability": "nonpayable",
      "type": "function"
    },
    {
      "inputs": [],
      "name": "owner",
      "outputs": [
        {
          "internalType": "address",
          "name": "",
          "type": "address"
        }
      ],
      "stateMutability": "view",
      "type": "function"
    },
    {
      "inputs": [
        {
          "internalType": "address",
          "name": "userAddr",
          "type": "address"
        }
      ],
      "name": "removeAdmin",
      "outputs": [],
      "stateMutability": "nonpayable",
      "type": "function"
    },
    {
      "inputs": [],
      "name": "renounceOwnership",
      "outputs": [],
      "stateMutability": "nonpayable",
      "type": "function"
    },
    {
      "inputs": [
        {
          "internalType": "address",
          "name": "newOwner",
          "type": "address"
        }
      ],
      "name": "transferOwnership",
      "outputs": [],
      "stateMutability": "nonpayable",
      "type": "function"
    }
  ],
  "transactionHash": "0x694cc0fd8357173b7979c2edbc3c4dffb35e5390615514f4c4ec2fe368f25fe4",
  "args": [
    "0xb37136B338C6cC0E459A35fe9Aa036f6b5A147c0",
    "0xb37136B338C6cC0E459A35fe9Aa036f6b5A147c0",
    "0xA9148dC69f71b8f3dF71193a48f2915980dB8C19",
    "0x5BaF16d57620Cb361F622232F3cb4090e35F3da2"
  ],
  "numDeployments": 1,
  "solcInputHash": "9e299c46b5bdc8324e828cc93e5863fa",
  "bytecode": "0x6101806040523480156200001257600080fd5b5060405162001dee38038062001dee8339810160408190526200003591620002e0565b604080518082018252601981527f444f444f204c696d6974204f726465722050726f746f636f6c000000000000006020808301918252835180850190945260018452603160f81b908401528151902060e08190527fc89efdaa54c0f20c7adf612882df0950f5a951637e0307cdcb4c672f298b8bc66101008190524660a0529192917f8b73c3c69bb8fe3d512ecc4cf759cc79239f7b179b0ffacaa9a75d522b39400f620001288184846040805160208101859052908101839052606081018290524660808201523060a082015260009060c0016040516020818303038152906040528051906020012090509392505050565b6080523060601b60c05261012052506200014e9250620001489150503390565b6200019e565b6200015984620001ee565b600180546001600160a01b039094166001600160a01b0319909416939093179092556001600160601b0319606091821b81166101405291901b1661016052506200033c565b600080546001600160a01b038381166001600160a01b0319831681178455604051919092169283917f8be0079c531659141344cd1fd0a4f28419497f9722a3daafe3b4186f6b6457e09190a35050565b6000546001600160a01b031633146200024e5760405162461bcd60e51b815260206004820181905260248201527f4f776e61626c653a2063616c6c6572206973206e6f7420746865206f776e657260448201526064015b60405180910390fd5b6001600160a01b038116620002b55760405162461bcd60e51b815260206004820152602660248201527f4f776e61626c653a206e6577206f776e657220697320746865207a65726f206160448201526564647265737360d01b606482015260840162000245565b620002c0816200019e565b50565b80516001600160a01b0381168114620002db57600080fd5b919050565b60008060008060808587031215620002f6578384fd5b6200030185620002c3565b93506200031160208601620002c3565b92506200032160408601620002c3565b91506200033160608601620002c3565b905092959194509250565b60805160a05160c05160601c60e05161010051610120516101405160601c6101605160601c611a21620003cd600039600081816101ff015281816105c20152818161072c01528181610afd0152610bac01526000818160ee0152610701015260006114ea01526000611539015260006115140152600061146d01526000611497015260006114c10152611a216000f3fe608060405234801561001057600080fd5b50600436106100cf5760003560e01c8063937fa7031161008c578063b08d659511610066578063b08d6595146101e7578063eb99be12146101fa578063f2fde38b14610221578063fb63184e1461023457600080fd5b8063937fa7031461016c57806399a12ead1461019f5780639ae78b5a146101d457600080fd5b80631785f53c146100d457806346e74298146100e9578063704802751461012d578063715018a6146101405780638c733318146101485780638da5cb5b1461015b575b600080fd5b6100e76100e2366004611709565b610257565b005b6101107f000000000000000000000000000000000000000000000000000000000000000081565b6040516001600160a01b0390911681526020015b60405180910390f35b6100e761013b366004611709565b6102e2565b6100e7610360565b6100e7610156366004611709565b610396565b6000546001600160a01b0316610110565b61018f61017a366004611709565b60026020526000908152604090205460ff1681565b6040519015158152602001610124565b6101c67f6a8dbbec051463148d27a29a3c9fe4f78c6d0a2b88174d9c44f9be5c3b15fc6081565b604051908152602001610124565b6100e76101e2366004611762565b61040e565b600154610110906001600160a01b031681565b6101107f000000000000000000000000000000000000000000000000000000000000000081565b6100e761022f366004611709565b610ccb565b61018f61024236600461174a565b60036020526000908152604090205460ff1681565b6000546001600160a01b0316331461028a5760405162461bcd60e51b815260040161028190611932565b60405180910390fd5b6001600160a01b038116600081815260026020908152604091829020805460ff1916905590519182527f753f40ca3312b2408759a67875b367955e7baa221daf08aa3d643d96202ac12b91015b60405180910390a150565b6000546001600160a01b0316331461030c5760405162461bcd60e51b815260040161028190611932565b6001600160a01b038116600081815260026020908152604091829020805460ff1916600117905590519182527fad6de4452a631e641cb59902236607946ce9272b9b981f2f80e8d129cb9084ba91016102d7565b6000546001600160a01b0316331461038a5760405162461bcd60e51b815260040161028190611932565b6103946000610d66565b565b6000546001600160a01b031633146103c05760405162461bcd60e51b815260040161028190611932565b600180546001600160a01b0319166001600160a01b0383169081179091556040519081527f74b2bb8da08ce82e665420ee864fd487d4ccd449434dc6fd13819141bd994454906020016102d7565b3360009081526002602052604090205460ff1661045d5760405162461bcd60e51b815260206004820152600d60248201526c1050d0d154d4d7d11153925151609a1b6044820152606401610281565b6000610476610471368a90038a018a611805565b610db6565b90506104856020890189611709565b6001600160a01b03166104ce8289898080601f016020809104026020016040519081016040528093929190818152602001838380828437600092019190915250610dfe92505050565b6001600160a01b03161461051d5760405162461bcd60e51b8152602060048201526016602482015275444c4f503a494e56414c49445f5349474e415455524560501b6044820152606401610281565b428860a00135116105655760405162461bcd60e51b8152602060048201526012602482015271111313d40e93d491115497d156141254915160721b6044820152606401610281565b60008181526003602052604090205460ff16156105b85760405162461bcd60e51b8152602060048201526011602482015270111313d40e93d491115497d19253131151607a1b6044820152606401610281565b6001600160a01b037f000000000000000000000000000000000000000000000000000000000000000016630a5ea4666105f760408b0160208c01611709565b61060460208c018c611709565b308c606001356040518563ffffffff1660e01b81526004016106299493929190611908565b600060405180830381600087803b15801561064357600080fd5b505af1158015610657573d6000803e3d6000fd5b505050506000808960400160208101906106719190611709565b6040516370a0823160e01b81523060048201526001600160a01b0391909116906370a082319060240160206040518083038186803b1580156106b257600080fd5b505afa1580156106c6573d6000803e3d6000fd5b505050506040513d601f19601f820116820180604052508101906106ea91906118a7565b905061072a6106ff60408c0160208d01611709565b7f00000000000000000000000000000000000000000000000000000000000000008c60600135610e22565b7f00000000000000000000000000000000000000000000000000000000000000006001600160a01b0316856001600160a01b031614156107ac5760405162461bcd60e51b815260206004820152601960248201527f444c4f503a524f5554455f414444524553535f52454a454354000000000000006044820152606401610281565b6000856001600160a01b031688886040516107c89291906118bf565b6000604051808303816000865af19150503d8060008114610805576040519150601f19603f3d011682016040523d82523d6000602084013e61080a565b606091505b50509050806108545760405162461bcd60e51b8152602060048201526016602482015275111313d40e9113d113d7d493d5551157d1905253115160521b6044820152606401610281565b600061086660608d0160408e01611709565b6040516370a0823160e01b81523060048201526001600160a01b0391909116906370a082319060240160206040518083038186803b1580156108a757600080fd5b505afa1580156108bb573d6000803e3d6000fd5b505050506040513d601f19601f820116820180604052508101906108df91906118a7565b90506108eb83826119be565b9350505050886080013581106109de5761093061090b60208b018b611709565b60808b013561092060608d0160408e01611709565b6001600160a01b03169190610ee6565b6001546109d9906001600160a01b031661095060608c0160408d01611709565b6040516370a0823160e01b81523060048201526001600160a01b0391909116906370a082319060240160206040518083038186803b15801561099157600080fd5b505afa1580156109a5573d6000803e3d6000fd5b505050506040513d601f19601f820116820180604052508101906109c991906118a7565b61092060608d0160408e01611709565b610c6d565b6109ff6109ee60208b018b611709565b8261092060608d0160408e01611709565b6000610a0f8260808c01356119be565b905083811115610a615760405162461bcd60e51b815260206004820152601860248201527f444c4f503a434f4d50454e534154494f4e5f45584345454400000000000000006044820152606401610281565b80610a7260608c0160408d01611709565b6001546040516370a0823160e01b81526001600160a01b0391821660048201529116906370a082319060240160206040518083038186803b158015610ab657600080fd5b505afa158015610aca573d6000803e3d6000fd5b505050506040513d601f19601f82011682018060405250810190610aee91906118a7565b10610ba2576001600160a01b037f000000000000000000000000000000000000000000000000000000000000000016630a5ea466610b3260608d0160408e01611709565b6001546001600160a01b0316610b4b60208f018f611709565b856040518563ffffffff1660e01b8152600401610b6b9493929190611908565b600060405180830381600087803b158015610b8557600080fd5b505af1158015610b99573d6000803e3d6000fd5b50505050610c6b565b6001600160a01b037f000000000000000000000000000000000000000000000000000000000000000016630a5ea466610be160408d0160208e01611709565b6001546001600160a01b0316610bfa60208f018f611709565b8e608001358f6060013587610c0f919061199f565b610c19919061197f565b6040518563ffffffff1660e01b8152600401610c389493929190611908565b600060405180830381600087803b158015610c5257600080fd5b505af1158015610c66573d6000803e3d6000fd5b505050505b505b60008281526003602052604090819020805460ff19166001179055517f031a3a58995b193a45e2431fd17d6a328e1e33b06e7327b23db4d355cf96d91790610cb89084815260200190565b60405180910390a1505050505050505050565b6000546001600160a01b03163314610cf55760405162461bcd60e51b815260040161028190611932565b6001600160a01b038116610d5a5760405162461bcd60e51b815260206004820152602660248201527f4f776e61626c653a206e6577206f776e657220697320746865207a65726f206160448201526564647265737360d01b6064820152608401610281565b610d6381610d66565b50565b600080546001600160a01b038381166001600160a01b0319831681178455604051919092169283917f8be0079c531659141344cd1fd0a4f28419497f9722a3daafe3b4186f6b6457e09190a35050565b601f19810180517f6a8dbbec051463148d27a29a3c9fe4f78c6d0a2b88174d9c44f9be5c3b15fc60808352610100832091909252600091610df682610f4e565b949350505050565b6000806000610e0d8585610fa2565b91509150610e1a81611012565b509392505050565b604051636eb1769f60e11b81523060048201526001600160a01b0383811660248301526000919085169063dd62ed3e9060440160206040518083038186803b158015610e6d57600080fd5b505afa158015610e81573d6000803e3d6000fd5b505050506040513d601f19601f82011682018060405250810190610ea591906118a7565b905081811015610ee0578015610eca57610eca6001600160a01b038516846000611213565b610ee06001600160a01b03851684600019611213565b50505050565b6040516001600160a01b038316602482015260448101829052610f4990849063a9059cbb60e01b906064015b60408051601f198184030181529190526020810180516001600160e01b03166001600160e01b031990931692909217909152611337565b505050565b6000610f9c610f5b611460565b8360405161190160f01b6020820152602281018390526042810182905260009060620160405160208183030381529060405280519060200120905092915050565b92915050565b600080825160411415610fd95760208301516040840151606085015160001a610fcd87828585611587565b9450945050505061100b565b8251604014156110035760208301516040840151610ff8868383611674565b93509350505061100b565b506000905060025b9250929050565b600081600481111561103457634e487b7160e01b600052602160045260246000fd5b141561103d5750565b600181600481111561105f57634e487b7160e01b600052602160045260246000fd5b14156110ad5760405162461bcd60e51b815260206004820152601860248201527f45434453413a20696e76616c6964207369676e617475726500000000000000006044820152606401610281565b60028160048111156110cf57634e487b7160e01b600052602160045260246000fd5b141561111d5760405162461bcd60e51b815260206004820152601f60248201527f45434453413a20696e76616c6964207369676e6174757265206c656e677468006044820152606401610281565b600381600481111561113f57634e487b7160e01b600052602160045260246000fd5b14156111985760405162461bcd60e51b815260206004820152602260248201527f45434453413a20696e76616c6964207369676e6174757265202773272076616c604482015261756560f01b6064820152608401610281565b60048160048111156111ba57634e487b7160e01b600052602160045260246000fd5b1415610d635760405162461bcd60e51b815260206004820152602260248201527f45434453413a20696e76616c6964207369676e6174757265202776272076616c604482015261756560f01b6064820152608401610281565b80158061129c5750604051636eb1769f60e11b81523060048201526001600160a01b03838116602483015284169063dd62ed3e9060440160206040518083038186803b15801561126257600080fd5b505afa158015611276573d6000803e3d6000fd5b505050506040513d601f19601f8201168201806040525081019061129a91906118a7565b155b6113075760405162461bcd60e51b815260206004820152603660248201527f5361666545524332303a20617070726f76652066726f6d206e6f6e2d7a65726f60448201527520746f206e6f6e2d7a65726f20616c6c6f77616e636560501b6064820152608401610281565b6040516001600160a01b038316602482015260448101829052610f4990849063095ea7b360e01b90606401610f12565b600080836001600160a01b03168360405161135291906118cf565b6000604051808303816000865af19150503d806000811461138f576040519150601f19603f3d011682016040523d82523d6000602084013e611394565b606091505b5091509150816113e65760405162461bcd60e51b815260206004820181905260248201527f5361666545524332303a206c6f772d6c6576656c2063616c6c206661696c65646044820152606401610281565b805115610ee05780806020019051810190611401919061172a565b610ee05760405162461bcd60e51b815260206004820152602a60248201527f5361666545524332303a204552433230206f7065726174696f6e20646964206e6044820152691bdd081cdd58d8d9595960b21b6064820152608401610281565b6000306001600160a01b037f0000000000000000000000000000000000000000000000000000000000000000161480156114b957507f000000000000000000000000000000000000000000000000000000000000000046145b156114e357507f000000000000000000000000000000000000000000000000000000000000000090565b50604080517f00000000000000000000000000000000000000000000000000000000000000006020808301919091527f0000000000000000000000000000000000000000000000000000000000000000828401527f000000000000000000000000000000000000000000000000000000000000000060608301524660808301523060a0808401919091528351808403909101815260c0909201909252805191012090565b6000807f7fffffffffffffffffffffffffffffff5d576e7357a4501ddfe92f46681b20a08311156115be575060009050600361166b565b8460ff16601b141580156115d657508460ff16601c14155b156115e7575060009050600461166b565b6040805160008082526020820180845289905260ff881692820192909252606081018690526080810185905260019060a0016020604051602081039080840390855afa15801561163b573d6000803e3d6000fd5b5050604051601f1901519150506001600160a01b0381166116645760006001925092505061166b565b9150600090505b94509492505050565b6000806001600160ff1b0383168161169160ff86901c601b611967565b905061169f87828885611587565b935093505050935093915050565b80356001600160a01b03811681146116c457600080fd5b919050565b60008083601f8401126116da578182fd5b50813567ffffffffffffffff8111156116f1578182fd5b60208301915083602082850101111561100b57600080fd5b60006020828403121561171a578081fd5b611723826116ad565b9392505050565b60006020828403121561173b578081fd5b81518015158114611723578182fd5b60006020828403121561175b578081fd5b5035919050565b600080600080600080600087890361016081121561177e578384fd5b60e081121561178b578384fd5b5087965060e088013567ffffffffffffffff808211156117a9578485fd5b6117b58b838c016116c9565b90985096506101008a01359150808211156117ce578485fd5b506117db8a828b016116c9565b90955093506117ef905061012089016116ad565b9150610140880135905092959891949750929550565b600060e08284031215611816578081fd5b60405160e0810181811067ffffffffffffffff8211171561184557634e487b7160e01b83526041600452602483fd5b604052611851836116ad565b815261185f602084016116ad565b6020820152611870604084016116ad565b6040820152606083013560608201526080830135608082015260a083013560a082015260c083013560c08201528091505092915050565b6000602082840312156118b8578081fd5b5051919050565b8183823760009101908152919050565b60008251815b818110156118ef57602081860181015185830152016118d5565b818111156118fd5782828501525b509190910192915050565b6001600160a01b039485168152928416602084015292166040820152606081019190915260800190565b6020808252818101527f4f776e61626c653a2063616c6c6572206973206e6f7420746865206f776e6572604082015260600190565b6000821982111561197a5761197a6119d5565b500190565b60008261199a57634e487b7160e01b81526012600452602481fd5b500490565b60008160001904831182151516156119b9576119b96119d5565b500290565b6000828210156119d0576119d06119d5565b500390565b634e487b7160e01b600052601160045260246000fdfea2646970667358221220ff5a0f24a70ed07b5d4cf19ed45675740529207f3876de957da9e00cf39592b564736f6c63430008040033",
  "devdoc": {
    "kind": "dev",
    "methods": {
      "owner()": {
        "details": "Returns the address of the current owner."
      },
      "renounceOwnership()": {
        "details": "Leaves the contract without owner. It will not be possible to call `onlyOwner` functions anymore. Can only be called by the current owner. NOTE: Renouncing ownership will leave the contract without an owner, thereby removing any functionality that is only available to the owner."
      },
      "transferOwnership(address)": {
        "details": "Transfers ownership of the contract to a new account (`newOwner`). Can only be called by the current owner."
      }
    },
    "version": 1
  },
  "userdoc": {
    "kind": "user",
    "methods": {},
    "version": 1
  },
  "storageLayout": {
    "storage": [
      {
        "astId": 7,
        "contract": "src/DODOGaslessTrading.sol:DODOGaslessTrading",
        "label": "_owner",
        "offset": 0,
        "slot": "0",
        "type": "t_address"
      },
      {
        "astId": 1624,
        "contract": "src/DODOGaslessTrading.sol:DODOGaslessTrading",
        "label": "_INSURANCE_",
        "offset": 0,
        "slot": "1",
        "type": "t_address"
      },
      {
        "astId": 1632,
        "contract": "src/DODOGaslessTrading.sol:DODOGaslessTrading",
        "label": "_IS_ADMIN_",
        "offset": 0,
        "slot": "2",
        "type": "t_mapping(t_address,t_bool)"
      },
      {
        "astId": 1636,
        "contract": "src/DODOGaslessTrading.sol:DODOGaslessTrading",
        "label": "_IS_FILLED_",
        "offset": 0,
        "slot": "3",
        "type": "t_mapping(t_bytes32,t_bool)"
      }
    ],
    "types": {
      "t_address": {
        "encoding": "inplace",
        "label": "address",
        "numberOfBytes": "20"
      },
      "t_bool": {
        "encoding": "inplace",
        "label": "bool",
        "numberOfBytes": "1"
      },
      "t_bytes32": {
        "encoding": "inplace",
        "label": "bytes32",
        "numberOfBytes": "32"
      },
      "t_mapping(t_address,t_bool)": {
        "encoding": "mapping",
        "key": "t_address",
        "label": "mapping(address => bool)",
        "numberOfBytes": "32",
        "value": "t_bool"
      },
      "t_mapping(t_bytes32,t_bool)": {
        "encoding": "mapping",
        "key": "t_bytes32",
        "label": "mapping(bytes32 => bool)",
        "numberOfBytes": "32",
        "value": "t_bool"
      }
    }
  }
}