{
  "address": "0x65934e2f228Fde069A6255F46E6A15Bc9DE38545",
  "abi": [
    {
      "anonymous": false,
      "inputs": [
        {
          "indexed": false,
          "internalType": "address",
          "name": "admin",
          "type": "address"
        }
      ],
      "name": "AddAdmin",
      "type": "event"
    },
    {
      "anonymous": false,
      "inputs": [
        {
          "indexed": false,
          "internalType": "address",
          "name": "addr",
          "type": "address"
        }
      ],
      "name": "AddWhileList",
      "type": "event"
    },
    {
      "anonymous": false,
      "inputs": [
        {
          "indexed": false,
          "internalType": "address",
          "name": "newFeeReceiver",
          "type": "address"
        }
      ],
      "name": "ChangeFeeReceiver",
      "type": "event"
    },
    {
      "anonymous": false,
      "inputs": [
        {
          "indexed": true,
          "internalType": "address",
          "name": "maker",
          "type": "address"
        },
        {
          "indexed": true,
          "internalType": "address",
          "name": "taker",
          "type": "address"
        },
        {
          "indexed": false,
          "internalType": "bytes32",
          "name": "orderHash",
          "type": "bytes32"
        },
        {
          "indexed": false,
          "internalType": "uint256",
          "name": "curTakerFillAmount",
          "type": "uint256"
        },
        {
          "indexed": false,
          "internalType": "uint256",
          "name": "curMakerFillAmount",
          "type": "uint256"
        }
      ],
      "name": "LimitOrderFilled",
      "type": "event"
    },
    {
      "anonymous": false,
      "inputs": [
        {
          "indexed": true,
          "internalType": "address",
          "name": "previousOwner",
          "type": "address"
        },
        {
          "indexed": true,
          "internalType": "address",
          "name": "newOwner",
          "type": "address"
        }
      ],
      "name": "OwnershipTransferPrepared",
      "type": "event"
    },
    {
      "anonymous": false,
      "inputs": [
        {
          "indexed": true,
          "internalType": "address",
          "name": "previousOwner",
          "type": "address"
        },
        {
          "indexed": true,
          "internalType": "address",
          "name": "newOwner",
          "type": "address"
        }
      ],
      "name": "OwnershipTransferred",
      "type": "event"
    },
    {
      "anonymous": false,
      "inputs": [
        {
          "indexed": true,
          "internalType": "address",
          "name": "maker",
          "type": "address"
        },
        {
          "indexed": true,
          "internalType": "address",
          "name": "taker",
          "type": "address"
        },
        {
          "indexed": false,
          "internalType": "bytes32",
          "name": "orderHash",
          "type": "bytes32"
        },
        {
          "indexed": false,
          "internalType": "uint256",
          "name": "curTakerFillAmount",
          "type": "uint256"
        },
        {
          "indexed": false,
          "internalType": "uint256",
          "name": "curMakerFillAmount",
          "type": "uint256"
        }
      ],
      "name": "RFQByPlatformFilled",
      "type": "event"
    },
    {
      "anonymous": false,
      "inputs": [
        {
          "indexed": true,
          "internalType": "address",
          "name": "maker",
          "type": "address"
        },
        {
          "indexed": true,
          "internalType": "address",
          "name": "taker",
          "type": "address"
        },
        {
          "indexed": false,
          "internalType": "bytes32",
          "name": "orderHash",
          "type": "bytes32"
        },
        {
          "indexed": false,
          "internalType": "uint256",
          "name": "curTakerFillAmount",
          "type": "uint256"
        },
        {
          "indexed": false,
          "internalType": "uint256",
          "name": "curMakerFillAmount",
          "type": "uint256"
        }
      ],
      "name": "RFQByUserFilled",
      "type": "event"
    },
    {
      "anonymous": false,
      "inputs": [
        {
          "indexed": false,
          "internalType": "address",
          "name": "admin",
          "type": "address"
        }
      ],
      "name": "RemoveAdmin",
      "type": "event"
    },
    {
      "anonymous": false,
      "inputs": [
        {
          "indexed": false,
          "internalType": "address",
          "name": "addr",
          "type": "address"
        }
      ],
      "name": "RemoveWhiteList",
      "type": "event"
    },
    {
      "inputs": [],
      "name": "ORDER_TYPEHASH",
      "outputs": [
        {
          "internalType": "bytes32",
          "name": "",
          "type": "bytes32"
        }
      ],
      "stateMutability": "view",
      "type": "function"
    },
    {
      "inputs": [],
      "name": "RFQ_ORDER_TYPEHASH",
      "outputs": [
        {
          "internalType": "bytes32",
          "name": "",
          "type": "bytes32"
        }
      ],
      "stateMutability": "view",
      "type": "function"
    },
    {
      "inputs": [],
      "name": "_DODO_APPROVE_PROXY_",
      "outputs": [
        {
          "internalType": "address",
          "name": "",
          "type": "address"
        }
      ],
      "stateMutability": "view",
      "type": "function"
    },
    {
      "inputs": [],
      "name": "_FEE_RECEIVER_",
      "outputs": [
        {
          "internalType": "address",
          "name": "",
          "type": "address"
        }
      ],
      "stateMutability": "view",
      "type": "function"
    },
    {
      "inputs": [
        {
          "internalType": "bytes32",
          "name": "",
          "type": "bytes32"
        }
      ],
      "name": "_FILLED_TAKER_AMOUNT_",
      "outputs": [
        {
          "internalType": "uint256",
          "name": "",
          "type": "uint256"
        }
      ],
      "stateMutability": "view",
      "type": "function"
    },
    {
      "inputs": [],
      "name": "_NEW_OWNER_",
      "outputs": [
        {
          "internalType": "address",
          "name": "",
          "type": "address"
        }
      ],
      "stateMutability": "view",
      "type": "function"
    },
    {
      "inputs": [],
      "name": "_OWNER_",
      "outputs": [
        {
          "internalType": "address",
          "name": "",
          "type": "address"
        }
      ],
      "stateMutability": "view",
      "type": "function"
    },
    {
      "inputs": [
        {
          "internalType": "address",
          "name": "",
          "type": "address"
        },
        {
          "internalType": "uint256",
          "name": "",
          "type": "uint256"
        }
      ],
      "name": "_RFQ_FILLED_TAKER_AMOUNT_",
      "outputs": [
        {
          "internalType": "uint256",
          "name": "",
          "type": "uint256"
        }
      ],
      "stateMutability": "view",
      "type": "function"
    },
    {
      "inputs": [
        {
          "internalType": "address",
          "name": "userAddr",
          "type": "address"
        }
      ],
      "name": "addAdminList",
      "outputs": [],
      "stateMutability": "nonpayable",
      "type": "function"
    },
    {
      "inputs": [
        {
          "internalType": "address",
          "name": "contractAddr",
          "type": "address"
        }
      ],
      "name": "addWhiteList",
      "outputs": [],
      "stateMutability": "nonpayable",
      "type": "function"
    },
    {
      "inputs": [
        {
          "internalType": "address",
          "name": "newFeeReceiver",
          "type": "address"
        }
      ],
      "name": "changeFeeReceiver",
      "outputs": [],
      "stateMutability": "nonpayable",
      "type": "function"
    },
    {
      "inputs": [],
      "name": "claimOwnership",
      "outputs": [],
      "stateMutability": "nonpayable",
      "type": "function"
    },
    {
      "inputs": [
        {
          "components": [
            {
              "internalType": "address",
              "name": "makerToken",
              "type": "address"
            },
            {
              "internalType": "address",
              "name": "takerToken",
              "type": "address"
            },
            {
              "internalType": "uint256",
              "name": "makerAmount",
              "type": "uint256"
            },
            {
              "internalType": "uint256",
              "name": "takerAmount",
              "type": "uint256"
            },
            {
              "internalType": "address",
              "name": "maker",
              "type": "address"
            },
            {
              "internalType": "address",
              "name": "taker",
              "type": "address"
            },
            {
              "internalType": "uint256",
              "name": "expiration",
              "type": "uint256"
            },
            {
              "internalType": "uint256",
              "name": "salt",
              "type": "uint256"
            }
          ],
          "internalType": "struct DODOLimitOrder.Order",
          "name": "order",
          "type": "tuple"
        },
        {
          "internalType": "bytes",
          "name": "signature",
          "type": "bytes"
        },
        {
          "internalType": "uint256",
          "name": "takerFillAmount",
          "type": "uint256"
        },
        {
          "internalType": "uint256",
          "name": "thresholdTakerAmount",
          "type": "uint256"
        },
        {
          "internalType": "bytes",
          "name": "takerInteraction",
          "type": "bytes"
        }
      ],
      "name": "fillLimitOrder",
      "outputs": [
        {
          "internalType": "uint256",
          "name": "curTakerFillAmount",
          "type": "uint256"
        },
        {
          "internalType": "uint256",
          "name": "curMakerFillAmount",
          "type": "uint256"
        }
      ],
      "stateMutability": "nonpayable",
      "type": "function"
    },
    {
      "inputs": [
        {
          "internalType": "address",
          "name": "owner",
          "type": "address"
        },
        {
          "internalType": "address",
          "name": "dodoApproveProxy",
          "type": "address"
        },
        {
          "internalType": "address",
          "name": "feeReciver",
          "type": "address"
        }
      ],
      "name": "init",
      "outputs": [],
      "stateMutability": "nonpayable",
      "type": "function"
    },
    {
      "inputs": [
        {
          "internalType": "address",
          "name": "newOwner",
          "type": "address"
        }
      ],
      "name": "initOwner",
      "outputs": [],
      "stateMutability": "nonpayable",
      "type": "function"
    },
    {
      "inputs": [
        {
          "internalType": "address",
          "name": "",
          "type": "address"
        }
      ],
      "name": "isAdminListed",
      "outputs": [
        {
          "internalType": "bool",
          "name": "",
          "type": "bool"
        }
      ],
      "stateMutability": "view",
      "type": "function"
    },
    {
      "inputs": [
        {
          "internalType": "address",
          "name": "",
          "type": "address"
        }
      ],
      "name": "isWhiteListed",
      "outputs": [
        {
          "internalType": "bool",
          "name": "",
          "type": "bool"
        }
      ],
      "stateMutability": "view",
      "type": "function"
    },
    {
      "inputs": [
        {
          "components": [
            {
              "internalType": "address",
              "name": "makerToken",
              "type": "address"
            },
            {
              "internalType": "address",
              "name": "takerToken",
              "type": "address"
            },
            {
              "internalType": "uint256",
              "name": "makerAmount",
              "type": "uint256"
            },
            {
              "internalType": "uint256",
              "name": "takerAmount",
              "type": "uint256"
            },
            {
              "internalType": "uint256",
              "name": "makerTokenFeeAmount",
              "type": "uint256"
            },
            {
              "internalType": "uint256",
              "name": "takerFillAmount",
              "type": "uint256"
            },
            {
              "internalType": "address",
              "name": "maker",
              "type": "address"
            },
            {
              "internalType": "address",
              "name": "taker",
              "type": "address"
            },
            {
              "internalType": "uint256",
              "name": "expiration",
              "type": "uint256"
            },
            {
              "internalType": "uint256",
              "name": "slot",
              "type": "uint256"
            }
          ],
          "internalType": "struct DODOLimitOrder.RfqOrder",
          "name": "order",
          "type": "tuple"
        },
        {
          "internalType": "bytes",
          "name": "makerSignature",
          "type": "bytes"
        },
        {
          "internalType": "bytes",
          "name": "takerSignature",
          "type": "bytes"
        },
        {
          "internalType": "uint256",
          "name": "takerFillAmount",
          "type": "uint256"
        },
        {
          "internalType": "uint256",
          "name": "thresholdMakerAmount",
          "type": "uint256"
        },
        {
          "internalType": "uint256",
          "name": "makerTokenFeeAmount",
          "type": "uint256"
        },
        {
          "internalType": "address",
          "name": "taker",
          "type": "address"
        }
      ],
      "name": "matchingRFQByPlatform",
      "outputs": [
        {
          "internalType": "uint256",
          "name": "curTakerFillAmount",
          "type": "uint256"
        },
        {
          "internalType": "uint256",
          "name": "curMakerFillAmount",
          "type": "uint256"
        }
      ],
      "stateMutability": "nonpayable",
      "type": "function"
    },
    {
      "inputs": [
        {
          "internalType": "address",
          "name": "userAddr",
          "type": "address"
        }
      ],
      "name": "removeAdminList",
      "outputs": [],
      "stateMutability": "nonpayable",
      "type": "function"
    },
    {
      "inputs": [
        {
          "internalType": "address",
          "name": "contractAddr",
          "type": "address"
        }
      ],
      "name": "removeWhiteList",
      "outputs": [],
      "stateMutability": "nonpayable",
      "type": "function"
    },
    {
      "inputs": [
        {
          "internalType": "address",
          "name": "newOwner",
          "type": "address"
        }
      ],
      "name": "transferOwnership",
      "outputs": [],
      "stateMutability": "nonpayable",
      "type": "function"
    }
  ],
  "transactionHash": "0x9c22aaa8cd1f9f80b748b4f94a2ac09860267ad95f84bd389582ef2346b17062",
  "args": [],
  "numDeployments": 1,
  "solcInputHash": "9e299c46b5bdc8324e828cc93e5863fa",
  "bytecode": "0x61012060405234801561001157600080fd5b50604080518082018252601981527f444f444f204c696d6974204f726465722050726f746f636f6c0000000000000060208083019182528351808501855260018152603160f81b908201529151902060c08181527fc89efdaa54c0f20c7adf612882df0950f5a951637e0307cdcb4c672f298b8bc660e08190524660a081815286517f8b73c3c69bb8fe3d512ecc4cf759cc79239f7b179b0ffacaa9a75d522b39400f818801819052818901969096526060810193909352608080840192909252308382015286518084039091018152919092019094528351939092019290922090526101005260805160a05160c05160e05161010051611fc561013c60003960006119f401526000611a4301526000611a1e015260006119a2015260006119cb0152611fc56000f3fe608060405234801561001057600080fd5b50600436106101375760003560e01c80637161e0f2116100b8578063d9df05cf1161007c578063d9df05cf146102f9578063e7cd4a041461030c578063eb99be121461031f578063f2fde38b14610332578063f973a20914610345578063fd8bd8491461036c57600080fd5b80637161e0f2146102855780637c08b964146102985780638456db15146102ab578063a4d31e2e146102be578063ae52aae7146102e657600080fd5b80632042e5c2116100ff5780632042e5c2146101f55780633b11fffa146102085780633f45e230146102335780634e71e0c81461025a5780636f9170f61461026257600080fd5b80630d0092971461013c5780631068705b1461015157806316048bc4146101845780631822c0c0146101af578063184b9559146101e2575b600080fd5b61014f61014a366004611b34565b61037f565b005b61017161015f366004611bd9565b60026020526000908152604090205481565b6040519081526020015b60405180910390f35b600054610197906001600160a01b031681565b6040516001600160a01b03909116815260200161017b565b6101d26101bd366004611b34565b60056020526000908152604090205460ff1681565b604051901515815260200161017b565b61014f6101f0366004611b4e565b610407565b61014f610203366004611b34565b61043f565b610171610216366004611b90565b600360209081526000928352604080842090915290825290205481565b6101717f621f3db621de9f3f54820b129b0a28203499510cf968b4cd9a1155cce12e41d181565b61014f6104c1565b6101d2610270366004611b34565b60046020526000908152604090205460ff1681565b600754610197906001600160a01b031681565b61014f6102a6366004611b34565b61056f565b600154610197906001600160a01b031681565b6102d16102cc366004611cf0565b6105e7565b6040805192835260208301919091520161017b565b61014f6102f4366004611b34565b610885565b6102d1610307366004611bf1565b610903565b61014f61031a366004611b34565b610d97565b600654610197906001600160a01b031681565b61014f610340366004611b34565b610e15565b6101717f9e31ac2990003b5142f3966f6d93f8ee4befc60049bcd8504dce6d014d939c8a81565b61014f61037a366004611b34565b610e9a565b600154600160a01b900460ff16156103d15760405162461bcd60e51b815260206004820152601060248201526f1113d113d7d25392551250531256915160821b60448201526064015b60405180910390fd5b6001805460ff60a01b1916600160a01b179055600080546001600160a01b039092166001600160a01b0319909216919091179055565b6104108361037f565b600680546001600160a01b039384166001600160a01b0319918216179091556007805492909316911617905550565b6000546001600160a01b031633146104695760405162461bcd60e51b81526004016103c890611e84565b6001600160a01b038116600081815260046020908152604091829020805460ff1916905590519182527f1e17ee0599b7c09bb1d0ff1e8086007909da8bfba5c7d18319cb558e66db37ee91015b60405180910390a150565b6001546001600160a01b0316331461050b5760405162461bcd60e51b815260206004820152600d60248201526c494e56414c49445f434c41494d60981b60448201526064016103c8565b600154600080546040516001600160a01b0393841693909116917f8be0079c531659141344cd1fd0a4f28419497f9722a3daafe3b4186f6b6457e091a360018054600080546001600160a01b03199081166001600160a01b03841617909155169055565b6000546001600160a01b031633146105995760405162461bcd60e51b81526004016103c890611e84565b600780546001600160a01b0319166001600160a01b0383169081179091556040519081527ffb29108df6ec24f97dfbe39fff6bb9357a54e758efed2c6e7b5fb76b26b30f81906020016104b6565b33600090815260056020526040812054819060ff166106385760405162461bcd60e51b815260206004820152600d60248201526c1050d0d154d4d7d11153925151609a1b60448201526064016103c8565b60c08901516001600160a01b031660009081526003602090815260408083206101208d0151845290915290205460608a015181106106af5760405162461bcd60e51b8152602060048201526014602482015273111313d40e881053149150511657d1925313115160621b60448201526064016103c8565b60006106ba8b610f15565b90508a60c001516001600160a01b03166106d4828c611003565b6001600160a01b03161461072a5760405162461bcd60e51b815260206004820152601c60248201527f444c4f503a494e56414c49445f4d414b45525f5349474e41545552450000000060448201526064016103c8565b60e08b01516001600160a01b03161561077a5760405162461bcd60e51b8152602060048201526012602482015271111313d40e951052d15497d253959053125160721b60448201526064016103c8565b6001600160a01b03851660e08c015260808b0186905260a08b0188905260006107a28c610f15565b9050856001600160a01b03166107b8828c611003565b6001600160a01b03161461080e5760405162461bcd60e51b815260206004820152601c60248201527f444c4f503a494e56414c49445f54414b45525f5349474e41545552450000000060448201526064016103c8565b61081b8c848b8b8a6110a7565b60c08e015160408051868152602081018590529081018390529297509095506001600160a01b03808916929116907f20f056d2630312ff7f9fa56edcc34b2221f2f78fc7b4cd961559be1bbd759d0d9060600160405180910390a350505097509795505050505050565b6000546001600160a01b031633146108af5760405162461bcd60e51b81526004016103c890611e84565b6001600160a01b038116600081815260056020908152604091829020805460ff1916600117905590519182527fad6de4452a631e641cb59902236607946ce9272b9b981f2f80e8d129cb9084ba91016104b6565b6000806000610911886113fd565b60008181526002602052604090205460608a015191925090811061096e5760405162461bcd60e51b8152602060048201526014602482015273111313d40e881053149150511657d1925313115160621b60448201526064016103c8565b60a08901516001600160a01b031633146109bf5760405162461bcd60e51b8152602060048201526012602482015271222627a81d282924ab20aa22afa7a92222a960711b60448201526064016103c8565b88608001516001600160a01b03166109d7838a611003565b6001600160a01b031614610a265760405162461bcd60e51b8152602060048201526016602482015275444c4f503a494e56414c49445f5349474e415455524560501b60448201526064016103c8565b428960c0015111610a6e5760405162461bcd60e51b8152602060048201526012602482015271222627a81d1022ac2824a922afa7a92222a960711b60448201526064016103c8565b6060890151600090610a8090836114ad565b9050808810610a8f5780610a91565b875b9450610ab88a60600151610ab28c60400151886114fc90919063ffffffff16565b9061155d565b9350600085118015610aca5750600084115b610b105760405162461bcd60e51b8152602060048201526017602482015276111313d40e8816915493d7d192531317d2539590531251604a1b60448201526064016103c8565b86851015610b605760405162461bcd60e51b815260206004820152601c60248201527f444c4f503a2046494c4c5f414d4f554e545f4e4f545f454e4f5547480000000060448201526064016103c8565b610b6a82866115a9565b60008481526002602052604090819020919091556006548b5160808d0151925163052f523360e11b81526001600160a01b0390921692630a5ea46692610bb892919033908a90600401611e5a565b600060405180830381600087803b158015610bd257600080fd5b505af1158015610be6573d6000803e3d6000fd5b50505050600086511115610d105760248601859052604486018490523360009081526004602052604090205460ff16610c615760405162461bcd60e51b815260206004820152601c60248201527f444c4f503a204e6f742057686974656c69737420436f6e74726163740000000060448201526064016103c8565b6000336001600160a01b031687604051610c7b9190611e21565b6000604051808303816000865af19150503d8060008114610cb8576040519150601f19603f3d011682016040523d82523d6000602084013e610cbd565b606091505b5050905080610d0e5760405162461bcd60e51b815260206004820152601e60248201527f444c4f503a2054414b45525f494e5445524143544956455f4641494c4544000060448201526064016103c8565b505b610d38338b60800151878d602001516001600160a01b03166115f4909392919063ffffffff16565b60808a0151604080518581526020810188905290810186905233916001600160a01b0316907f30a60b21c24c8f631a1e032527b3ee9a12b7e1fce164b4273c40f5db964152459060600160405180910390a35050509550959350505050565b6000546001600160a01b03163314610dc15760405162461bcd60e51b81526004016103c890611e84565b6001600160a01b038116600081815260046020908152604091829020805460ff1916600117905590519182527ffb1e3b3e7fb68c870fdd34471e2402d26abb27eed56fac2801ad0953859db87191016104b6565b6000546001600160a01b03163314610e3f5760405162461bcd60e51b81526004016103c890611e84565b600080546040516001600160a01b03808516939216917fdcf55418cee3220104fef63f979ff3c4097ad240c0c43dcb33ce837748983e6291a3600180546001600160a01b0319166001600160a01b0392909216919091179055565b6000546001600160a01b03163314610ec45760405162461bcd60e51b81526004016103c890611e84565b6001600160a01b038116600081815260056020908152604091829020805460ff1916905590519182527f753f40ca3312b2408759a67875b367955e7baa221daf08aa3d643d96202ac12b91016104b6565b6000610ffd7f621f3db621de9f3f54820b129b0a28203499510cf968b4cd9a1155cce12e41d1836000015184602001518560400151866060015187608001518860a001518960c001518a60e001518b61010001518c6101200151604051602001610fe29b9a999897969594939291909a8b526001600160a01b03998a1660208c015297891660408b015260608a0196909652608089019490945260a088019290925260c0870152841660e08601529092166101008401526101208301919091526101408201526101600190565b60405160208183030381529060405280519060200120611654565b92915050565b60008151604114156110375760208201516040830151606084015160001a61102d868285856116a2565b9350505050610ffd565b81516040141561105f576020820151604083015161105685838361184b565b92505050610ffd565b60405162461bcd60e51b815260206004820152601f60248201527f45434453413a20696e76616c6964207369676e6174757265206c656e6774680060448201526064016103c8565b60008042876101000151116110f35760405162461bcd60e51b8152602060048201526012602482015271222627a81d1022ac2824a922afa7a92222a960711b60448201526064016103c8565b606087015160009061110590886114ad565b9050808611156111615760405162461bcd60e51b815260206004820152602160248201527f444c4f503a205246515f54414b45525f414d4f554e545f4e4f545f454e4f55476044820152600960fb1b60648201526084016103c8565b600086905060006111878a60600151610ab28c60400151856114fc90919063ffffffff16565b90506000821180156111995750600081115b6111df5760405162461bcd60e51b8152602060048201526017602482015276111313d40e8816915493d7d192531317d2539590531251604a1b60448201526064016103c8565b866111f78b60800151836114ad90919063ffffffff16565b10156112455760405162461bcd60e51b815260206004820152601c60248201527f444c4f503a2046494c4c5f414d4f554e545f4e4f545f454e4f5547480000000060448201526064016103c8565b61124f89836115a9565b60c08b01516001600160a01b031660009081526003602090815260408083206101208f0151845290915290205560808a0151156112fd576006548a5160c08c015160075460808e015160405163052f523360e11b81526001600160a01b0395861695630a5ea466956112ca9590949093911691600401611e5a565b600060405180830381600087803b1580156112e457600080fd5b505af11580156112f8573d6000803e3d6000fd5b505050505b6006548a5160c08c015160808d01516001600160a01b0390931692630a5ea4669291908a9061132d9087906114ad565b6040518563ffffffff1660e01b815260040161134c9493929190611e5a565b600060405180830381600087803b15801561136657600080fd5b505af115801561137a573d6000803e3d6000fd5b505060065460208d015160c08e015160405163052f523360e11b81526001600160a01b039093169450630a5ea46693506113bb928b91908890600401611e5a565b600060405180830381600087803b1580156113d557600080fd5b505af11580156113e9573d6000803e3d6000fd5b50939c929b50919950505050505050505050565b6000610ffd7f9e31ac2990003b5142f3966f6d93f8ee4befc60049bcd8504dce6d014d939c8a836000015184602001518560400151866060015187608001518860a001518960c001518a60e00151604051602001610fe2999897969594939291909889526001600160a01b0397881660208a0152958716604089015260608801949094526080870192909252841660a086015290921660c084015260e08301919091526101008201526101200190565b6000828211156114eb5760405162461bcd60e51b815260206004820152600960248201526829aaa12fa2a92927a960b91b60448201526064016103c8565b6114f58284611f4c565b9392505050565b60008261150b57506000610ffd565b60006115178385611f2d565b9050826115248583611f0d565b146114f55760405162461bcd60e51b815260206004820152600960248201526826aaa62fa2a92927a960b91b60448201526064016103c8565b600080821161159f5760405162461bcd60e51b815260206004820152600e60248201526d2224ab24a224a723afa2a92927a960911b60448201526064016103c8565b6114f58284611f0d565b6000806115b68385611ef5565b9050838110156114f55760405162461bcd60e51b815260206004820152600960248201526820a2222fa2a92927a960b91b60448201526064016103c8565b604080516001600160a01b0385811660248301528416604482015260648082018490528251808303909101815260849091019091526020810180516001600160e01b03166323b872dd60e01b17905261164e908590611875565b50505050565b6000610ffd61166161199e565b8360405161190160f01b6020820152602281018390526042810182905260009060620160405160208183030381529060405280519060200120905092915050565b60007f7fffffffffffffffffffffffffffffff5d576e7357a4501ddfe92f46681b20a082111561171f5760405162461bcd60e51b815260206004820152602260248201527f45434453413a20696e76616c6964207369676e6174757265202773272076616c604482015261756560f01b60648201526084016103c8565b8360ff16601b148061173457508360ff16601c145b61178b5760405162461bcd60e51b815260206004820152602260248201527f45434453413a20696e76616c6964207369676e6174757265202776272076616c604482015261756560f01b60648201526084016103c8565b6040805160008082526020820180845288905260ff871692820192909252606081018590526080810184905260019060a0016020604051602081039080840390855afa1580156117df573d6000803e3d6000fd5b5050604051601f1901519150506001600160a01b0381166118425760405162461bcd60e51b815260206004820152601860248201527f45434453413a20696e76616c6964207369676e6174757265000000000000000060448201526064016103c8565b95945050505050565b60006001600160ff1b03821660ff83901c601b0161186b868287856116a2565b9695505050505050565b600080836001600160a01b0316836040516118909190611e21565b6000604051808303816000865af19150503d80600081146118cd576040519150601f19603f3d011682016040523d82523d6000602084013e6118d2565b606091505b5091509150816119245760405162461bcd60e51b815260206004820181905260248201527f5361666545524332303a206c6f772d6c6576656c2063616c6c206661696c656460448201526064016103c8565b80511561164e578080602001905181019061193f9190611bb9565b61164e5760405162461bcd60e51b815260206004820152602a60248201527f5361666545524332303a204552433230206f7065726174696f6e20646964206e6044820152691bdd081cdd58d8d9595960b21b60648201526084016103c8565b60007f00000000000000000000000000000000000000000000000000000000000000004614156119ed57507f000000000000000000000000000000000000000000000000000000000000000090565b50604080517f00000000000000000000000000000000000000000000000000000000000000006020808301919091527f0000000000000000000000000000000000000000000000000000000000000000828401527f000000000000000000000000000000000000000000000000000000000000000060608301524660808301523060a0808401919091528351808403909101815260c0909201909252805191012090565b80356001600160a01b0381168114611aa857600080fd5b919050565b600082601f830112611abd578081fd5b813567ffffffffffffffff80821115611ad857611ad8611f79565b604051601f8301601f19908116603f01168101908282118183101715611b0057611b00611f79565b81604052838152866020858801011115611b18578485fd5b8360208701602083013792830160200193909352509392505050565b600060208284031215611b45578081fd5b6114f582611a91565b600080600060608486031215611b62578182fd5b611b6b84611a91565b9250611b7960208501611a91565b9150611b8760408501611a91565b90509250925092565b60008060408385031215611ba2578182fd5b611bab83611a91565b946020939093013593505050565b600060208284031215611bca578081fd5b815180151581146114f5578182fd5b600060208284031215611bea578081fd5b5035919050565b6000806000806000858703610180811215611c0a578182fd5b61010080821215611c19578283fd5b611c21611ea7565b9150611c2c88611a91565b8252611c3a60208901611a91565b60208301526040880135604083015260608801356060830152611c5f60808901611a91565b6080830152611c7060a08901611a91565b60a083015260c0888101359083015260e0808901359083015290955086013567ffffffffffffffff80821115611ca4578283fd5b611cb089838a01611aad565b955061012088013594506101408801359350610160880135915080821115611cd6578283fd5b50611ce388828901611aad565b9150509295509295909350565b6000806000806000806000878903610200811215611d0c578283fd5b61014080821215611d1b578384fd5b611d23611ed1565b9150611d2e8a611a91565b8252611d3c60208b01611a91565b602083015260408a0135604083015260608a0135606083015260808a0135608083015260a08a013560a0830152611d7560c08b01611a91565b60c0830152611d8660e08b01611a91565b60e08301526101008a81013590830152610120808b01359083015290975088013567ffffffffffffffff80821115611dbc578384fd5b611dc88b838c01611aad565b97506101608a0135915080821115611dde578384fd5b50611deb8a828b01611aad565b95505061018088013593506101a088013592506101c08801359150611e136101e08901611a91565b905092959891949750929550565b60008251815b81811015611e415760208186018101518583015201611e27565b81811115611e4f5782828501525b509190910192915050565b6001600160a01b039485168152928416602084015292166040820152606081019190915260800190565b6020808252600990820152682727aa2fa7aba722a960b91b604082015260600190565b604051610100810167ffffffffffffffff81118282101715611ecb57611ecb611f79565b60405290565b604051610140810167ffffffffffffffff81118282101715611ecb57611ecb611f79565b60008219821115611f0857611f08611f63565b500190565b600082611f2857634e487b7160e01b81526012600452602481fd5b500490565b6000816000190483118215151615611f4757611f47611f63565b500290565b600082821015611f5e57611f5e611f63565b500390565b634e487b7160e01b600052601160045260246000fd5b634e487b7160e01b600052604160045260246000fdfea26469706673582212200b74c448c67e6a27559774a3621fd29894e4d0d6d575dae4e98fc2d2afbb77a164736f6c63430008040033",
  "devdoc": {
    "author": "DODO Breeder",
    "kind": "dev",
    "methods": {},
    "title": "DODOLimitOrder",
    "version": 1
  },
  "userdoc": {
    "kind": "user",
    "methods": {},
    "version": 1
  },
  "storageLayout": {
    "storage": [
      {
        "astId": 3619,
        "contract": "src/DODOLimitOrder.sol:DODOLimitOrder",
        "label": "_OWNER_",
        "offset": 0,
        "slot": "0",
        "type": "t_address"
      },
      {
        "astId": 3621,
        "contract": "src/DODOLimitOrder.sol:DODOLimitOrder",
        "label": "_NEW_OWNER_",
        "offset": 0,
        "slot": "1",
        "type": "t_address"
      },
      {
        "astId": 3623,
        "contract": "src/DODOLimitOrder.sol:DODOLimitOrder",
        "label": "_INITIALIZED_",
        "offset": 20,
        "slot": "1",
        "type": "t_bool"
      },
      {
        "astId": 2142,
        "contract": "src/DODOLimitOrder.sol:DODOLimitOrder",
        "label": "_FILLED_TAKER_AMOUNT_",
        "offset": 0,
        "slot": "2",
        "type": "t_mapping(t_bytes32,t_uint256)"
      },
      {
        "astId": 2148,
        "contract": "src/DODOLimitOrder.sol:DODOLimitOrder",
        "label": "_RFQ_FILLED_TAKER_AMOUNT_",
        "offset": 0,
        "slot": "3",
        "type": "t_mapping(t_address,t_mapping(t_uint256,t_uint256))"
      },
      {
        "astId": 2152,
        "contract": "src/DODOLimitOrder.sol:DODOLimitOrder",
        "label": "isWhiteListed",
        "offset": 0,
        "slot": "4",
        "type": "t_mapping(t_address,t_bool)"
      },
      {
        "astId": 2156,
        "contract": "src/DODOLimitOrder.sol:DODOLimitOrder",
        "label": "isAdminListed",
        "offset": 0,
        "slot": "5",
        "type": "t_mapping(t_address,t_bool)"
      },
      {
        "astId": 2158,
        "contract": "src/DODOLimitOrder.sol:DODOLimitOrder",
        "label": "_DODO_APPROVE_PROXY_",
        "offset": 0,
        "slot": "6",
        "type": "t_address"
      },
      {
        "astId": 2160,
        "contract": "src/DODOLimitOrder.sol:DODOLimitOrder",
        "label": "_FEE_RECEIVER_",
        "offset": 0,
        "slot": "7",
        "type": "t_address"
      }
    ],
    "types": {
      "t_address": {
        "encoding": "inplace",
        "label": "address",
        "numberOfBytes": "20"
      },
      "t_bool": {
        "encoding": "inplace",
        "label": "bool",
        "numberOfBytes": "1"
      },
      "t_bytes32": {
        "encoding": "inplace",
        "label": "bytes32",
        "numberOfBytes": "32"
      },
      "t_mapping(t_address,t_bool)": {
        "encoding": "mapping",
        "key": "t_address",
        "label": "mapping(address => bool)",
        "numberOfBytes": "32",
        "value": "t_bool"
      },
      "t_mapping(t_address,t_mapping(t_uint256,t_uint256))": {
        "encoding": "mapping",
        "key": "t_address",
        "label": "mapping(address => mapping(uint256 => uint256))",
        "numberOfBytes": "32",
        "value": "t_mapping(t_uint256,t_uint256)"
      },
      "t_mapping(t_bytes32,t_uint256)": {
        "encoding": "mapping",
        "key": "t_bytes32",
        "label": "mapping(bytes32 => uint256)",
        "numberOfBytes": "32",
        "value": "t_uint256"
      },
      "t_mapping(t_uint256,t_uint256)": {
        "encoding": "mapping",
        "key": "t_uint256",
        "label": "mapping(uint256 => uint256)",
        "numberOfBytes": "32",
        "value": "t_uint256"
      },
      "t_uint256": {
        "encoding": "inplace",
        "label": "uint256",
        "numberOfBytes": "32"
      }
    }
  }
}