{
  "address": "0xB5c7BA1EAde74800cD6cf5F56b1c4562De373780",
  "abi": [
    {
      "anonymous": false,
      "inputs": [],
      "name": "Fill",
      "type": "event"
    },
    {
      "anonymous": false,
      "inputs": [
        {
          "indexed": true,
          "internalType": "address",
          "name": "previousOwner",
          "type": "address"
        },
        {
          "indexed": true,
          "internalType": "address",
          "name": "newOwner",
          "type": "address"
        }
      ],
      "name": "OwnershipTransferPrepared",
      "type": "event"
    },
    {
      "anonymous": false,
      "inputs": [
        {
          "indexed": true,
          "internalType": "address",
          "name": "previousOwner",
          "type": "address"
        },
        {
          "indexed": true,
          "internalType": "address",
          "name": "newOwner",
          "type": "address"
        }
      ],
      "name": "OwnershipTransferred",
      "type": "event"
    },
    {
      "anonymous": false,
      "inputs": [
        {
          "indexed": false,
          "internalType": "address",
          "name": "admin",
          "type": "address"
        }
      ],
      "name": "addAdmin",
      "type": "event"
    },
    {
      "anonymous": false,
      "inputs": [
        {
          "indexed": false,
          "internalType": "address",
          "name": "newReceiver",
          "type": "address"
        }
      ],
      "name": "changeReceiver",
      "type": "event"
    },
    {
      "anonymous": false,
      "inputs": [
        {
          "indexed": false,
          "internalType": "address",
          "name": "admin",
          "type": "address"
        }
      ],
      "name": "removeAdmin",
      "type": "event"
    },
    {
      "inputs": [],
      "name": "_DODO_APPROVE_",
      "outputs": [
        {
          "internalType": "address",
          "name": "",
          "type": "address"
        }
      ],
      "stateMutability": "view",
      "type": "function"
    },
    {
      "inputs": [],
      "name": "_DODO_LIMIT_ORDER_",
      "outputs": [
        {
          "internalType": "address",
          "name": "",
          "type": "address"
        }
      ],
      "stateMutability": "view",
      "type": "function"
    },
    {
      "inputs": [],
      "name": "_NEW_OWNER_",
      "outputs": [
        {
          "internalType": "address",
          "name": "",
          "type": "address"
        }
      ],
      "stateMutability": "view",
      "type": "function"
    },
    {
      "inputs": [],
      "name": "_OWNER_",
      "outputs": [
        {
          "internalType": "address",
          "name": "",
          "type": "address"
        }
      ],
      "stateMutability": "view",
      "type": "function"
    },
    {
      "inputs": [],
      "name": "_TOKEN_RECEIVER_",
      "outputs": [
        {
          "internalType": "address",
          "name": "",
          "type": "address"
        }
      ],
      "stateMutability": "view",
      "type": "function"
    },
    {
      "inputs": [
        {
          "internalType": "address",
          "name": "userAddr",
          "type": "address"
        }
      ],
      "name": "addAdminList",
      "outputs": [],
      "stateMutability": "nonpayable",
      "type": "function"
    },
    {
      "inputs": [
        {
          "internalType": "address",
          "name": "newTokenReceiver",
          "type": "address"
        }
      ],
      "name": "changeTokenReceiver",
      "outputs": [],
      "stateMutability": "nonpayable",
      "type": "function"
    },
    {
      "inputs": [],
      "name": "claimOwnership",
      "outputs": [],
      "stateMutability": "nonpayable",
      "type": "function"
    },
    {
      "inputs": [
        {
          "internalType": "uint256",
          "name": "curTakerFillAmount",
          "type": "uint256"
        },
        {
          "internalType": "uint256",
          "name": "curMakerFillAmount",
          "type": "uint256"
        },
        {
          "internalType": "address",
          "name": "makerToken",
          "type": "address"
        },
        {
          "internalType": "address",
          "name": "takerToken",
          "type": "address"
        },
        {
          "internalType": "address",
          "name": "dodoRouteProxy",
          "type": "address"
        },
        {
          "internalType": "bytes",
          "name": "dodoApiData",
          "type": "bytes"
        }
      ],
      "name": "doLimitOrderSwap",
      "outputs": [],
      "stateMutability": "nonpayable",
      "type": "function"
    },
    {
      "inputs": [
        {
          "internalType": "bytes",
          "name": "callExternalData",
          "type": "bytes"
        },
        {
          "internalType": "address",
          "name": "takerToken",
          "type": "address"
        },
        {
          "internalType": "uint256",
          "name": "minTakerTokenAmount",
          "type": "uint256"
        }
      ],
      "name": "fillDODOLimitOrder",
      "outputs": [],
      "stateMutability": "nonpayable",
      "type": "function"
    },
    {
      "inputs": [
        {
          "internalType": "address",
          "name": "owner",
          "type": "address"
        },
        {
          "internalType": "address",
          "name": "dodoLimitOrder",
          "type": "address"
        },
        {
          "internalType": "address",
          "name": "tokenReceiver",
          "type": "address"
        },
        {
          "internalType": "address",
          "name": "dodoApprove",
          "type": "address"
        }
      ],
      "name": "init",
      "outputs": [],
      "stateMutability": "nonpayable",
      "type": "function"
    },
    {
      "inputs": [
        {
          "internalType": "address",
          "name": "newOwner",
          "type": "address"
        }
      ],
      "name": "initOwner",
      "outputs": [],
      "stateMutability": "nonpayable",
      "type": "function"
    },
    {
      "inputs": [
        {
          "internalType": "address",
          "name": "",
          "type": "address"
        }
      ],
      "name": "isAdminListed",
      "outputs": [
        {
          "internalType": "bool",
          "name": "",
          "type": "bool"
        }
      ],
      "stateMutability": "view",
      "type": "function"
    },
    {
      "inputs": [
        {
          "internalType": "address",
          "name": "userAddr",
          "type": "address"
        }
      ],
      "name": "removeAdminList",
      "outputs": [],
      "stateMutability": "nonpayable",
      "type": "function"
    },
    {
      "inputs": [
        {
          "internalType": "address",
          "name": "newOwner",
          "type": "address"
        }
      ],
      "name": "transferOwnership",
      "outputs": [],
      "stateMutability": "nonpayable",
      "type": "function"
    }
  ],
  "transactionHash": "0x8038dfcfbdac3b22e0610c88b8985733af7e42dfb56eb1dfa0ab2db4e989d54e",
  "args": [],
  "numDeployments": 1,
  "solcInputHash": "9e299c46b5bdc8324e828cc93e5863fa",
  "bytecode": "0x608060405234801561001057600080fd5b50611197806100206000396000f3fe608060405234801561001057600080fd5b50600436106100f55760003560e01c80634e71e0c811610097578063b074a78911610066578063b074a789146101ff578063bc2790c814610212578063f2fde38b14610225578063fd8bd8491461023857600080fd5b80634e71e0c8146101be5780638456db15146101c657806389143c25146101d9578063ae52aae7146101ec57600080fd5b80631822c0c0116100d35780631822c0c014610152578063272a16bd146101855780633b66b6151461019857806346e74298146101ab57600080fd5b806306552ff3146100fa5780630d0092971461010f57806316048bc414610122575b600080fd5b61010d610108366004610f6d565b61024b565b005b61010d61011d366004610f53565b610294565b600054610135906001600160a01b031681565b6040516001600160a01b0390911681526020015b60405180910390f35b610175610160366004610f53565b60056020526000908152604090205460ff1681565b6040519015158152602001610149565b61010d610193366004610fe0565b61031c565b600354610135906001600160a01b031681565b600454610135906001600160a01b031681565b61010d6105c1565b600154610135906001600160a01b031681565b61010d6101e736600461104d565b61066f565b61010d6101fa366004610f53565b6108eb565b600254610135906001600160a01b031681565b61010d610220366004610f53565b610970565b61010d610233366004610f53565b6109e8565b61010d610246366004610f53565b610a6d565b61025484610294565b600280546001600160a01b039485166001600160a01b03199182161790915560038054938516938216939093179092556004805491909316911617905550565b600154600160a01b900460ff16156102e65760405162461bcd60e51b815260206004820152601060248201526f1113d113d7d25392551250531256915160821b60448201526064015b60405180910390fd5b6001805460ff60a01b1916600160a01b179055600080546001600160a01b039092166001600160a01b0319909216919091179055565b3360009081526005602052604090205460ff1661036b5760405162461bcd60e51b815260206004820152600d60248201526c1050d0d154d4d7d11153925151609a1b60448201526064016102dd565b6040516370a0823160e01b81523060048201526000906001600160a01b038416906370a082319060240160206040518083038186803b1580156103ad57600080fd5b505afa1580156103c1573d6000803e3d6000fd5b505050506040513d601f19601f820116820180604052508101906103e59190611035565b6002546040519192506000916001600160a01b03909116906104089087906110cc565b6000604051808303816000865af19150503d8060008114610445576040519150601f19603f3d011682016040523d82523d6000602084013e61044a565b606091505b505090508061049b5760405162461bcd60e51b815260206004820152601b60248201527f455845435f444f444f5f4c494d49545f4f524445525f4552524f52000000000060448201526064016102dd565b6040516370a0823160e01b81523060048201526000906001600160a01b038616906370a082319060240160206040518083038186803b1580156104dd57600080fd5b505afa1580156104f1573d6000803e3d6000fd5b505050506040513d601f19601f820116820180604052508101906105159190611035565b905060006105238285610ae8565b9050848110156105755760405162461bcd60e51b815260206004820152601760248201527f54414b45525f414d4f554e545f4e4f545f454e4f55474800000000000000000060448201526064016102dd565b60035461058f906001600160a01b03888116911683610b37565b6040517fcb78302ec72136bfa852ed66b453ff3802e5959bb4df8386cd9695cae88de2e990600090a150505050505050565b6001546001600160a01b0316331461060b5760405162461bcd60e51b815260206004820152600d60248201526c494e56414c49445f434c41494d60981b60448201526064016102dd565b600154600080546040516001600160a01b0393841693909116917f8be0079c531659141344cd1fd0a4f28419497f9722a3daafe3b4186f6b6457e091a360018054600080546001600160a01b03199081166001600160a01b03841617909155169055565b6002546001600160a01b031633146106b95760405162461bcd60e51b815260206004820152600d60248201526c1050d0d154d4d7d39153925151609a1b60448201526064016102dd565b6040516370a0823160e01b81523060048201526000906001600160a01b038516906370a082319060240160206040518083038186803b1580156106fb57600080fd5b505afa15801561070f573d6000803e3d6000fd5b505050506040513d601f19601f820116820180604052508101906107339190611035565b60045490915061074e9086906001600160a01b031688610b9f565b6000836001600160a01b03168360405161076891906110cc565b6000604051808303816000865af19150503d80600081146107a5576040519150601f19603f3d011682016040523d82523d6000602084013e6107aa565b606091505b50509050806107ed5760405162461bcd60e51b815260206004820152600f60248201526e10541257d4d5d05417d19052531151608a1b60448201526064016102dd565b6040516370a0823160e01b81523060048201526000906001600160a01b038716906370a082319060240160206040518083038186803b15801561082f57600080fd5b505afa158015610843573d6000803e3d6000fd5b505050506040513d601f19601f820116820180604052508101906108679190611035565b905060006108758285610ae8565b9050898110156108c75760405162461bcd60e51b815260206004820152601c60248201527f535741505f54414b45525f414d4f554e545f4e4f545f454e4f5547480000000060448201526064016102dd565b6002546108df9088906001600160a01b03168c610b9f565b50505050505050505050565b6000546001600160a01b031633146109155760405162461bcd60e51b81526004016102dd90611105565b6001600160a01b038116600081815260056020908152604091829020805460ff1916600117905590519182527f7048027520ecbaa8947764cd502c5c78c2c53bbd902e06b108da1cbdf98c6fc491015b60405180910390a150565b6000546001600160a01b0316331461099a5760405162461bcd60e51b81526004016102dd90611105565b600380546001600160a01b0319166001600160a01b0383169081179091556040519081527f547e3f060aba0f7eec865fc52a952a5148e4903d709e38cde9c93b655ce0b05790602001610965565b6000546001600160a01b03163314610a125760405162461bcd60e51b81526004016102dd90611105565b600080546040516001600160a01b03808516939216917fdcf55418cee3220104fef63f979ff3c4097ad240c0c43dcb33ce837748983e6291a3600180546001600160a01b0319166001600160a01b0392909216919091179055565b6000546001600160a01b03163314610a975760405162461bcd60e51b81526004016102dd90611105565b6001600160a01b038116600081815260056020908152604091829020805460ff1916905590519182527f1785f53c768259a7ab38ed67e958aab075b56ff206e3d7f29ea4ca203d1a97749101610965565b600082821115610b265760405162461bcd60e51b815260206004820152600960248201526829aaa12fa2a92927a960b91b60448201526064016102dd565b610b308284611128565b9392505050565b6040516001600160a01b038316602482015260448101829052610b9a90849063a9059cbb60e01b906064015b60408051601f198184030181529190526020810180516001600160e01b03166001600160e01b031990931692909217909152610c63565b505050565b604051636eb1769f60e11b81523060048201526001600160a01b0383811660248301526000919085169063dd62ed3e9060440160206040518083038186803b158015610bea57600080fd5b505afa158015610bfe573d6000803e3d6000fd5b505050506040513d601f19601f82011682018060405250810190610c229190611035565b905081811015610c5d578015610c4757610c476001600160a01b038516846000610d8c565b610c5d6001600160a01b03851684600019610d8c565b50505050565b600080836001600160a01b031683604051610c7e91906110cc565b6000604051808303816000865af19150503d8060008114610cbb576040519150601f19603f3d011682016040523d82523d6000602084013e610cc0565b606091505b509150915081610d125760405162461bcd60e51b815260206004820181905260248201527f5361666545524332303a206c6f772d6c6576656c2063616c6c206661696c656460448201526064016102dd565b805115610c5d5780806020019051810190610d2d9190610fc0565b610c5d5760405162461bcd60e51b815260206004820152602a60248201527f5361666545524332303a204552433230206f7065726174696f6e20646964206e6044820152691bdd081cdd58d8d9595960b21b60648201526084016102dd565b801580610e155750604051636eb1769f60e11b81523060048201526001600160a01b03838116602483015284169063dd62ed3e9060440160206040518083038186803b158015610ddb57600080fd5b505afa158015610def573d6000803e3d6000fd5b505050506040513d601f19601f82011682018060405250810190610e139190611035565b155b610e805760405162461bcd60e51b815260206004820152603660248201527f5361666545524332303a20617070726f76652066726f6d206e6f6e2d7a65726f60448201527520746f206e6f6e2d7a65726f20616c6c6f77616e636560501b60648201526084016102dd565b6040516001600160a01b038316602482015260448101829052610b9a90849063095ea7b360e01b90606401610b63565b80356001600160a01b0381168114610ec757600080fd5b919050565b600082601f830112610edc578081fd5b813567ffffffffffffffff80821115610ef757610ef761114b565b604051601f8301601f19908116603f01168101908282118183101715610f1f57610f1f61114b565b81604052838152866020858801011115610f37578485fd5b8360208701602083013792830160200193909352509392505050565b600060208284031215610f64578081fd5b610b3082610eb0565b60008060008060808587031215610f82578283fd5b610f8b85610eb0565b9350610f9960208601610eb0565b9250610fa760408601610eb0565b9150610fb560608601610eb0565b905092959194509250565b600060208284031215610fd1578081fd5b81518015158114610b30578182fd5b600080600060608486031215610ff4578283fd5b833567ffffffffffffffff81111561100a578384fd5b61101686828701610ecc565b93505061102560208501610eb0565b9150604084013590509250925092565b600060208284031215611046578081fd5b5051919050565b60008060008060008060c08789031215611065578182fd5b863595506020870135945061107c60408801610eb0565b935061108a60608801610eb0565b925061109860808801610eb0565b915060a087013567ffffffffffffffff8111156110b3578182fd5b6110bf89828a01610ecc565b9150509295509295509295565b60008251815b818110156110ec57602081860181015185830152016110d2565b818111156110fa5782828501525b509190910192915050565b6020808252600990820152682727aa2fa7aba722a960b91b604082015260600190565b60008282101561114657634e487b7160e01b81526011600452602481fd5b500390565b634e487b7160e01b600052604160045260246000fdfea264697066735822122001f3bb6f9463215641085452e8de4644d62e5bff9b393be652da6778edf6007264736f6c63430008040033",
  "devdoc": {
    "author": "DODO Breeder",
    "kind": "dev",
    "methods": {},
    "title": "DODOLimitOrderBot",
    "version": 1
  },
  "userdoc": {
    "kind": "user",
    "methods": {},
    "version": 1
  },
  "storageLayout": {
    "storage": [
      {
        "astId": 3619,
        "contract": "src/DODOLimitOrderBot.sol:DODOLimitOrderBot",
        "label": "_OWNER_",
        "offset": 0,
        "slot": "0",
        "type": "t_address"
      },
      {
        "astId": 3621,
        "contract": "src/DODOLimitOrderBot.sol:DODOLimitOrderBot",
        "label": "_NEW_OWNER_",
        "offset": 0,
        "slot": "1",
        "type": "t_address"
      },
      {
        "astId": 3623,
        "contract": "src/DODOLimitOrderBot.sol:DODOLimitOrderBot",
        "label": "_INITIALIZED_",
        "offset": 20,
        "slot": "1",
        "type": "t_bool"
      },
      {
        "astId": 2901,
        "contract": "src/DODOLimitOrderBot.sol:DODOLimitOrderBot",
        "label": "_DODO_LIMIT_ORDER_",
        "offset": 0,
        "slot": "2",
        "type": "t_address"
      },
      {
        "astId": 2903,
        "contract": "src/DODOLimitOrderBot.sol:DODOLimitOrderBot",
        "label": "_TOKEN_RECEIVER_",
        "offset": 0,
        "slot": "3",
        "type": "t_address"
      },
      {
        "astId": 2905,
        "contract": "src/DODOLimitOrderBot.sol:DODOLimitOrderBot",
        "label": "_DODO_APPROVE_",
        "offset": 0,
        "slot": "4",
        "type": "t_address"
      },
      {
        "astId": 2909,
        "contract": "src/DODOLimitOrderBot.sol:DODOLimitOrderBot",
        "label": "isAdminListed",
        "offset": 0,
        "slot": "5",
        "type": "t_mapping(t_address,t_bool)"
      }
    ],
    "types": {
      "t_address": {
        "encoding": "inplace",
        "label": "address",
        "numberOfBytes": "20"
      },
      "t_bool": {
        "encoding": "inplace",
        "label": "bool",
        "numberOfBytes": "1"
      },
      "t_mapping(t_address,t_bool)": {
        "encoding": "mapping",
        "key": "t_address",
        "label": "mapping(address => bool)",
        "numberOfBytes": "32",
        "value": "t_bool"
      }
    }
  }
}